{
  "_format": "hh-sol-artifact-1",
  "contractName": "NFTSTORE",
  "sourceName": "contracts/NFTSTORE.sol",
  "address": "0x69Ac556521F65d9e969655c634bE73c77E27D059",
  "abi": [
    {
      "inputs": [],
      "stateMutability": "nonpayable",
      "type": "constructor"
    },
    {
      "inputs": [
        {
          "internalType": "address",
          "name": "sender",
          "type": "address"
        },
        {
          "internalType": "uint256",
          "name": "tokenId",
          "type": "uint256"
        },
        {
          "internalType": "address",
          "name": "owner",
          "type": "address"
        }
      ],
      "name": "ERC721IncorrectOwner",
      "type": "error"
    },
    {
      "inputs": [
        {
          "internalType": "address",
          "name": "operator",
          "type": "address"
        },
        {
          "internalType": "uint256",
          "name": "tokenId",
          "type": "uint256"
        }
      ],
      "name": "ERC721InsufficientApproval",
      "type": "error"
    },
    {
      "inputs": [
        {
          "internalType": "address",
          "name": "approver",
          "type": "address"
        }
      ],
      "name": "ERC721InvalidApprover",
      "type": "error"
    },
    {
      "inputs": [
        {
          "internalType": "address",
          "name": "operator",
          "type": "address"
        }
      ],
      "name": "ERC721InvalidOperator",
      "type": "error"
    },
    {
      "inputs": [
        {
          "internalType": "address",
          "name": "owner",
          "type": "address"
        }
      ],
      "name": "ERC721InvalidOwner",
      "type": "error"
    },
    {
      "inputs": [
        {
          "internalType": "address",
          "name": "receiver",
          "type": "address"
        }
      ],
      "name": "ERC721InvalidReceiver",
      "type": "error"
    },
    {
      "inputs": [
        {
          "internalType": "address",
          "name": "sender",
          "type": "address"
        }
      ],
      "name": "ERC721InvalidSender",
      "type": "error"
    },
    {
      "inputs": [
        {
          "internalType": "uint256",
          "name": "tokenId",
          "type": "uint256"
        }
      ],
      "name": "ERC721NonexistentToken",
      "type": "error"
    },
    {
      "anonymous": false,
      "inputs": [
        {
          "indexed": true,
          "internalType": "address",
          "name": "owner",
          "type": "address"
        },
        {
          "indexed": true,
          "internalType": "address",
          "name": "approved",
          "type": "address"
        },
        {
          "indexed": true,
          "internalType": "uint256",
          "name": "tokenId",
          "type": "uint256"
        }
      ],
      "name": "Approval",
      "type": "event"
    },
    {
      "anonymous": false,
      "inputs": [
        {
          "indexed": true,
          "internalType": "address",
          "name": "owner",
          "type": "address"
        },
        {
          "indexed": true,
          "internalType": "address",
          "name": "operator",
          "type": "address"
        },
        {
          "indexed": false,
          "internalType": "bool",
          "name": "approved",
          "type": "bool"
        }
      ],
      "name": "ApprovalForAll",
      "type": "event"
    },
    {
      "anonymous": false,
      "inputs": [
        {
          "indexed": false,
          "internalType": "uint256",
          "name": "_fromTokenId",
          "type": "uint256"
        },
        {
          "indexed": false,
          "internalType": "uint256",
          "name": "_toTokenId",
          "type": "uint256"
        }
      ],
      "name": "BatchMetadataUpdate",
      "type": "event"
    },
    {
      "anonymous": false,
      "inputs": [
        {
          "indexed": false,
          "internalType": "uint256",
          "name": "_tokenId",
          "type": "uint256"
        }
      ],
      "name": "MetadataUpdate",
      "type": "event"
    },
    {
      "anonymous": false,
      "inputs": [
        {
          "indexed": true,
          "internalType": "address",
          "name": "from",
          "type": "address"
        },
        {
          "indexed": true,
          "internalType": "address",
          "name": "to",
          "type": "address"
        },
        {
          "indexed": true,
          "internalType": "uint256",
          "name": "tokenId",
          "type": "uint256"
        }
      ],
      "name": "Transfer",
      "type": "event"
    },
    {
      "inputs": [
        {
          "internalType": "address",
          "name": "to",
          "type": "address"
        },
        {
          "internalType": "uint256",
          "name": "tokenId",
          "type": "uint256"
        }
      ],
      "name": "approve",
      "outputs": [],
      "stateMutability": "nonpayable",
      "type": "function"
    },
    {
      "inputs": [
        {
          "internalType": "address",
          "name": "owner",
          "type": "address"
        }
      ],
      "name": "balanceOf",
      "outputs": [
        {
          "internalType": "uint256",
          "name": "",
          "type": "uint256"
        }
      ],
      "stateMutability": "view",
      "type": "function"
    },
    {
      "inputs": [
        {
          "internalType": "string",
          "name": "_tokenURI",
          "type": "string"
        },
        {
          "internalType": "uint256",
          "name": "_price",
          "type": "uint256"
        },
        {
          "internalType": "uint256",
          "name": "_totalFractions",
          "type": "uint256"
        }
      ],
      "name": "createToken",
      "outputs": [
        {
          "internalType": "uint256",
          "name": "",
          "type": "uint256"
        }
      ],
      "stateMutability": "nonpayable",
      "type": "function"
    },
    {
      "inputs": [
        {
          "internalType": "uint256",
          "name": "tokenId",
          "type": "uint256"
        },
        {
          "internalType": "uint256",
          "name": "fractions",
          "type": "uint256"
        }
      ],
      "name": "executeFractionalSale",
      "outputs": [],
      "stateMutability": "payable",
      "type": "function"
    },
    {
      "inputs": [],
      "name": "getAllListedNFTs",
      "outputs": [
        {
          "components": [
            {
              "internalType": "uint256",
              "name": "tokenId",
              "type": "uint256"
            },
            {
              "internalType": "address payable",
              "name": "owner",
              "type": "address"
            },
            {
              "internalType": "address payable",
              "name": "seller",
              "type": "address"
            },
            {
              "internalType": "uint256",
              "name": "price",
              "type": "uint256"
            },
            {
              "internalType": "bool",
              "name": "isListed",
              "type": "bool"
            },
            {
              "internalType": "uint256",
              "name": "totalFractions",
              "type": "uint256"
            },
            {
              "internalType": "uint256",
              "name": "fractionsAvailable",
              "type": "uint256"
            }
          ],
          "internalType": "struct NFTSTORE.NFTListing[]",
          "name": "",
          "type": "tuple[]"
        }
      ],
      "stateMutability": "view",
      "type": "function"
    },
    {
      "inputs": [
        {
          "internalType": "uint256",
          "name": "tokenId",
          "type": "uint256"
        }
      ],
      "name": "getApproved",
      "outputs": [
        {
          "internalType": "address",
          "name": "",
          "type": "address"
        }
      ],
      "stateMutability": "view",
      "type": "function"
    },
    {
      "inputs": [],
      "name": "getCurrentTokenId",
      "outputs": [
        {
          "internalType": "uint256",
          "name": "",
          "type": "uint256"
        }
      ],
      "stateMutability": "view",
      "type": "function"
    },
    {
      "inputs": [],
      "name": "getListingFeePercent",
      "outputs": [
        {
          "internalType": "uint256",
          "name": "",
          "type": "uint256"
        }
      ],
      "stateMutability": "view",
      "type": "function"
    },
    {
      "inputs": [],
      "name": "getMyFractionalNFTs",
      "outputs": [
        {
          "components": [
            {
              "internalType": "uint256",
              "name": "tokenId",
              "type": "uint256"
            },
            {
              "internalType": "uint256",
              "name": "fractionsOwned",
              "type": "uint256"
            }
          ],
          "internalType": "struct NFTSTORE.FractionOwnership[]",
          "name": "",
          "type": "tuple[]"
        }
      ],
      "stateMutability": "view",
      "type": "function"
    },
    {
      "inputs": [],
      "name": "getMyNFTs",
      "outputs": [
        {
          "components": [
            {
              "internalType": "uint256",
              "name": "tokenId",
              "type": "uint256"
            },
            {
              "internalType": "address payable",
              "name": "owner",
              "type": "address"
            },
            {
              "internalType": "address payable",
              "name": "seller",
              "type": "address"
            },
            {
              "internalType": "uint256",
              "name": "price",
              "type": "uint256"
            },
            {
              "internalType": "bool",
              "name": "isListed",
              "type": "bool"
            },
            {
              "internalType": "uint256",
              "name": "totalFractions",
              "type": "uint256"
            },
            {
              "internalType": "uint256",
              "name": "fractionsAvailable",
              "type": "uint256"
            }
          ],
          "internalType": "struct NFTSTORE.NFTListing[]",
          "name": "",
          "type": "tuple[]"
        }
      ],
      "stateMutability": "view",
      "type": "function"
    },
    {
      "inputs": [
        {
          "internalType": "uint256",
          "name": "_tokenId",
          "type": "uint256"
        }
      ],
      "name": "getNFTListing",
      "outputs": [
        {
          "components": [
            {
              "internalType": "uint256",
              "name": "tokenId",
              "type": "uint256"
            },
            {
              "internalType": "address payable",
              "name": "owner",
              "type": "address"
            },
            {
              "internalType": "address payable",
              "name": "seller",
              "type": "address"
            },
            {
              "internalType": "uint256",
              "name": "price",
              "type": "uint256"
            },
            {
              "internalType": "bool",
              "name": "isListed",
              "type": "bool"
            },
            {
              "internalType": "uint256",
              "name": "totalFractions",
              "type": "uint256"
            },
            {
              "internalType": "uint256",
              "name": "fractionsAvailable",
              "type": "uint256"
            }
          ],
          "internalType": "struct NFTSTORE.NFTListing",
          "name": "",
          "type": "tuple"
        }
      ],
      "stateMutability": "view",
      "type": "function"
    },
    {
      "inputs": [
        {
          "internalType": "address",
          "name": "owner",
          "type": "address"
        },
        {
          "internalType": "address",
          "name": "operator",
          "type": "address"
        }
      ],
      "name": "isApprovedForAll",
      "outputs": [
        {
          "internalType": "bool",
          "name": "",
          "type": "bool"
        }
      ],
      "stateMutability": "view",
      "type": "function"
    },
    {
      "inputs": [],
      "name": "listingFeePercent",
      "outputs": [
        {
          "internalType": "uint256",
          "name": "",
          "type": "uint256"
        }
      ],
      "stateMutability": "view",
      "type": "function"
    },
    {
      "inputs": [],
      "name": "marketplaceOwner",
      "outputs": [
        {
          "internalType": "address payable",
          "name": "",
          "type": "address"
        }
      ],
      "stateMutability": "view",
      "type": "function"
    },
    {
      "inputs": [],
      "name": "name",
      "outputs": [
        {
          "internalType": "string",
          "name": "",
          "type": "string"
        }
      ],
      "stateMutability": "view",
      "type": "function"
    },
    {
      "inputs": [
        {
          "internalType": "uint256",
          "name": "tokenId",
          "type": "uint256"
        }
      ],
      "name": "ownerOf",
      "outputs": [
        {
          "internalType": "address",
          "name": "",
          "type": "address"
        }
      ],
      "stateMutability": "view",
      "type": "function"
    },
    {
      "inputs": [
        {
          "internalType": "address",
          "name": "from",
          "type": "address"
        },
        {
          "internalType": "address",
          "name": "to",
          "type": "address"
        },
        {
          "internalType": "uint256",
          "name": "tokenId",
          "type": "uint256"
        }
      ],
      "name": "safeTransferFrom",
      "outputs": [],
      "stateMutability": "nonpayable",
      "type": "function"
    },
    {
      "inputs": [
        {
          "internalType": "address",
          "name": "from",
          "type": "address"
        },
        {
          "internalType": "address",
          "name": "to",
          "type": "address"
        },
        {
          "internalType": "uint256",
          "name": "tokenId",
          "type": "uint256"
        },
        {
          "internalType": "bytes",
          "name": "data",
          "type": "bytes"
        }
      ],
      "name": "safeTransferFrom",
      "outputs": [],
      "stateMutability": "nonpayable",
      "type": "function"
    },
    {
      "inputs": [
        {
          "internalType": "address",
          "name": "operator",
          "type": "address"
        },
        {
          "internalType": "bool",
          "name": "approved",
          "type": "bool"
        }
      ],
      "name": "setApprovalForAll",
      "outputs": [],
      "stateMutability": "nonpayable",
      "type": "function"
    },
    {
      "inputs": [
        {
          "internalType": "bytes4",
          "name": "interfaceId",
          "type": "bytes4"
        }
      ],
      "name": "supportsInterface",
      "outputs": [
        {
          "internalType": "bool",
          "name": "",
          "type": "bool"
        }
      ],
      "stateMutability": "view",
      "type": "function"
    },
    {
      "inputs": [],
      "name": "symbol",
      "outputs": [
        {
          "internalType": "string",
          "name": "",
          "type": "string"
        }
      ],
      "stateMutability": "view",
      "type": "function"
    },
    {
      "inputs": [
        {
          "internalType": "uint256",
          "name": "tokenId",
          "type": "uint256"
        }
      ],
      "name": "tokenURI",
      "outputs": [
        {
          "internalType": "string",
          "name": "",
          "type": "string"
        }
      ],
      "stateMutability": "view",
      "type": "function"
    },
    {
      "inputs": [
        {
          "internalType": "address",
          "name": "from",
          "type": "address"
        },
        {
          "internalType": "address",
          "name": "to",
          "type": "address"
        },
        {
          "internalType": "uint256",
          "name": "tokenId",
          "type": "uint256"
        }
      ],
      "name": "transferFrom",
      "outputs": [],
      "stateMutability": "nonpayable",
      "type": "function"
    },
    {
      "inputs": [
        {
          "internalType": "uint256",
          "name": "_listingFeePercent",
          "type": "uint256"
        }
      ],
      "name": "updateListingFeePercent",
      "outputs": [],
      "stateMutability": "nonpayable",
      "type": "function"
    }
  ],
  "bytecode": "0x608060405260146008553480156200001657600080fd5b506040518060400160405280600881526020017f4e465453544f52450000000000000000000000000000000000000000000000008152506040518060400160405280600481526020017f4e4654530000000000000000000000000000000000000000000000000000000081525081600090816200009491906200036a565b508060019081620000a691906200036a565b50505033600760006101000a81548173ffffffffffffffffffffffffffffffffffffffff021916908373ffffffffffffffffffffffffffffffffffffffff16021790555062000451565b600081519050919050565b7f4e487b7100000000000000000000000000000000000000000000000000000000600052604160045260246000fd5b7f4e487b7100000000000000000000000000000000000000000000000000000000600052602260045260246000fd5b600060028204905060018216806200017257607f821691505b6020821081036200018857620001876200012a565b5b50919050565b60008190508160005260206000209050919050565b60006020601f8301049050919050565b600082821b905092915050565b600060088302620001f27fffffffffffffffffffffffffffffffffffffffffffffffffffffffffffffffff82620001b3565b620001fe8683620001b3565b95508019841693508086168417925050509392505050565b6000819050919050565b6000819050919050565b60006200024b620002456200023f8462000216565b62000220565b62000216565b9050919050565b6000819050919050565b62000267836200022a565b6200027f620002768262000252565b848454620001c0565b825550505050565b600090565b6200029662000287565b620002a38184846200025c565b505050565b5b81811015620002cb57620002bf6000826200028c565b600181019050620002a9565b5050565b601f8211156200031a57620002e4816200018e565b620002ef84620001a3565b81016020851015620002ff578190505b620003176200030e85620001a3565b830182620002a8565b50505b505050565b600082821c905092915050565b60006200033f600019846008026200031f565b1980831691505092915050565b60006200035a83836200032c565b9150826002028217905092915050565b6200037582620000f0565b67ffffffffffffffff811115620003915762000390620000fb565b5b6200039d825462000159565b620003aa828285620002cf565b600060209050601f831160018114620003e25760008415620003cd578287015190505b620003d985826200034c565b86555062000449565b601f198416620003f2866200018e565b60005b828110156200041c57848901518255600182019150602085019450602081019050620003f5565b868310156200043c578489015162000438601f8916826200032c565b8355505b6001600288020188555050505b505050505050565b613dbd80620004616000396000f3fe60806040526004361061014b5760003560e01c8063629cb2e4116100b6578063ac6a91851161006f578063ac6a9185146104a8578063b88d4fde146104d1578063bec2a7c5146104fa578063c768182b14610537578063c87b56dd14610553578063e985e9c5146105905761014b565b8063629cb2e4146103845780636352211e146103af578063650025a0146103ec57806370a082311461041757806395d89b4114610454578063a22cb4651461047f5761014b565b80630ea59c4b116101085780630ea59c4b1461027457806323b872dd146102b157806342842e0e146102da5780634b58ffaa14610303578063561892361461032e5780636151ff2e146103595761014b565b80630106dca21461015057806301ffc9a71461017b57806306fc1245146101b857806306fdde03146101e3578063081812fc1461020e578063095ea7b31461024b575b600080fd5b34801561015c57600080fd5b506101656105cd565b6040516101729190612b44565b60405180910390f35b34801561018757600080fd5b506101a2600480360381019061019d9190612bd2565b61067d565b6040516101af9190612c1a565b60405180910390f35b3480156101c457600080fd5b506101cd6106de565b6040516101da9190612c44565b60405180910390f35b3480156101ef57600080fd5b506101f86106e8565b6040516102059190612cef565b60405180910390f35b34801561021a57600080fd5b5061023560048036038101906102309190612d3d565b61077a565b6040516102429190612dab565b60405180910390f35b34801561025757600080fd5b50610272600480360381019061026d9190612df2565b610796565b005b34801561028057600080fd5b5061029b60048036038101906102969190612d3d565b6107ac565b6040516102a89190612ef0565b60405180910390f35b3480156102bd57600080fd5b506102d860048036038101906102d39190612f0b565b6108c8565b005b3480156102e657600080fd5b5061030160048036038101906102fc9190612f0b565b6109ca565b005b34801561030f57600080fd5b506103186109ea565b604051610325919061309b565b60405180910390f35b34801561033a57600080fd5b50610343610c56565b6040516103509190612c44565b60405180910390f35b34801561036557600080fd5b5061036e610c60565b60405161037b9190612c44565b60405180910390f35b34801561039057600080fd5b50610399610c66565b6040516103a6919061309b565b60405180910390f35b3480156103bb57600080fd5b506103d660048036038101906103d19190612d3d565b611043565b6040516103e39190612dab565b60405180910390f35b3480156103f857600080fd5b50610401611055565b60405161040e91906130cc565b60405180910390f35b34801561042357600080fd5b5061043e600480360381019061043991906130e7565b61107b565b60405161044b9190612c44565b60405180910390f35b34801561046057600080fd5b50610469611135565b6040516104769190612cef565b60405180910390f35b34801561048b57600080fd5b506104a660048036038101906104a19190613140565b6111c7565b005b3480156104b457600080fd5b506104cf60048036038101906104ca9190612d3d565b6111dd565b005b3480156104dd57600080fd5b506104f860048036038101906104f391906132b5565b611277565b005b34801561050657600080fd5b50610521600480360381019061051c91906133d9565b611294565b60405161052e9190612c44565b60405180910390f35b610551600480360381019061054c9190613448565b611364565b005b34801561055f57600080fd5b5061057a60048036038101906105759190612d3d565b611733565b6040516105879190612cef565b60405180910390f35b34801561059c57600080fd5b506105b760048036038101906105b29190613488565b611846565b6040516105c49190612c1a565b60405180910390f35b6060600c60003373ffffffffffffffffffffffffffffffffffffffff1673ffffffffffffffffffffffffffffffffffffffff168152602001908152602001600020805480602002602001604051908101604052809291908181526020016000905b828210156106745783829060005260206000209060020201604051806040016040529081600082015481526020016001820154815250508152602001906001019061062e565b50505050905090565b6000634906490660e01b7bffffffffffffffffffffffffffffffffffffffffffffffffffffffff1916827bffffffffffffffffffffffffffffffffffffffffffffffffffffffff191614806106d757506106d6826118da565b5b9050919050565b6000600854905090565b6060600080546106f7906134f7565b80601f0160208091040260200160405190810160405280929190818152602001828054610723906134f7565b80156107705780601f1061074557610100808354040283529160200191610770565b820191906000526020600020905b81548152906001019060200180831161075357829003601f168201915b5050505050905090565b6000610785826119bc565b5061078f82611a44565b9050919050565b6107a882826107a3611a81565b611a89565b5050565b6107b46129e2565b600b60008381526020019081526020016000206040518060e0016040529081600082015481526020016001820160009054906101000a900473ffffffffffffffffffffffffffffffffffffffff1673ffffffffffffffffffffffffffffffffffffffff1673ffffffffffffffffffffffffffffffffffffffff1681526020016002820160009054906101000a900473ffffffffffffffffffffffffffffffffffffffff1673ffffffffffffffffffffffffffffffffffffffff1673ffffffffffffffffffffffffffffffffffffffff168152602001600382015481526020016004820160009054906101000a900460ff16151515158152602001600582015481526020016006820154815250509050919050565b600073ffffffffffffffffffffffffffffffffffffffff168273ffffffffffffffffffffffffffffffffffffffff160361093a5760006040517f64a0ae920000000000000000000000000000000000000000000000000000000081526004016109319190612dab565b60405180910390fd5b600061094e8383610949611a81565b611a9b565b90508373ffffffffffffffffffffffffffffffffffffffff168173ffffffffffffffffffffffffffffffffffffffff16146109c4578382826040517f64283d7b0000000000000000000000000000000000000000000000000000000081526004016109bb93929190613528565b60405180910390fd5b50505050565b6109e583838360405180602001604052806000815250611277565b505050565b60606000600954905060008060005b83811015610a5257600b6000600183610a12919061358e565b815260200190815260200160002060040160009054906101000a900460ff1615610a45578280610a41906135c2565b9350505b80806001019150506109f9565b5060008267ffffffffffffffff811115610a6f57610a6e61318a565b5b604051908082528060200260200182016040528015610aa857816020015b610a956129e2565b815260200190600190039081610a8d5790505b50905060005b84811015610c4b57600b6000600183610ac7919061358e565b815260200190815260200160002060040160009054906101000a900460ff1615610c3e576000600182610afa919061358e565b90506000600b60008381526020019081526020016000209050806040518060e0016040529081600082015481526020016001820160009054906101000a900473ffffffffffffffffffffffffffffffffffffffff1673ffffffffffffffffffffffffffffffffffffffff1673ffffffffffffffffffffffffffffffffffffffff1681526020016002820160009054906101000a900473ffffffffffffffffffffffffffffffffffffffff1673ffffffffffffffffffffffffffffffffffffffff1673ffffffffffffffffffffffffffffffffffffffff168152602001600382015481526020016004820160009054906101000a900460ff1615151515815260200160058201548152602001600682015481525050848681518110610c2157610c2061360a565b5b6020026020010181905250600185610c39919061358e565b945050505b8080600101915050610aae565b508094505050505090565b6000600954905090565b60085481565b60606000600954905060008060005b83811015610d87573373ffffffffffffffffffffffffffffffffffffffff16600b6000600184610ca5919061358e565b815260200190815260200160002060010160009054906101000a900473ffffffffffffffffffffffffffffffffffffffff1673ffffffffffffffffffffffffffffffffffffffff161480610d6657503373ffffffffffffffffffffffffffffffffffffffff16600b6000600184610d1c919061358e565b815260200190815260200160002060020160009054906101000a900473ffffffffffffffffffffffffffffffffffffffff1673ffffffffffffffffffffffffffffffffffffffff16145b15610d7a578280610d76906135c2565b9350505b8080600101915050610c75565b5060008267ffffffffffffffff811115610da457610da361318a565b5b604051908082528060200260200182016040528015610ddd57816020015b610dca6129e2565b815260200190600190039081610dc25790505b50905060005b84811015611038573373ffffffffffffffffffffffffffffffffffffffff16600b6000600184610e13919061358e565b815260200190815260200160002060010160009054906101000a900473ffffffffffffffffffffffffffffffffffffffff1673ffffffffffffffffffffffffffffffffffffffff161480610ed457503373ffffffffffffffffffffffffffffffffffffffff16600b6000600184610e8a919061358e565b815260200190815260200160002060020160009054906101000a900473ffffffffffffffffffffffffffffffffffffffff1673ffffffffffffffffffffffffffffffffffffffff16145b1561102b576000600182610ee8919061358e565b90506000600b60008381526020019081526020016000209050806040518060e0016040529081600082015481526020016001820160009054906101000a900473ffffffffffffffffffffffffffffffffffffffff1673ffffffffffffffffffffffffffffffffffffffff1673ffffffffffffffffffffffffffffffffffffffff1681526020016002820160009054906101000a900473ffffffffffffffffffffffffffffffffffffffff1673ffffffffffffffffffffffffffffffffffffffff1673ffffffffffffffffffffffffffffffffffffffff168152602001600382015481526020016004820160009054906101000a900460ff161515151581526020016005820154815260200160068201548152505084868151811061100f5761100e61360a565b5b60200260200101819052508480611025906135c2565b95505050505b8080600101915050610de3565b508094505050505090565b600061104e826119bc565b9050919050565b600760009054906101000a900473ffffffffffffffffffffffffffffffffffffffff1681565b60008073ffffffffffffffffffffffffffffffffffffffff168273ffffffffffffffffffffffffffffffffffffffff16036110ee5760006040517f89c62b640000000000000000000000000000000000000000000000000000000081526004016110e59190612dab565b60405180910390fd5b600360008373ffffffffffffffffffffffffffffffffffffffff1673ffffffffffffffffffffffffffffffffffffffff168152602001908152602001600020549050919050565b606060018054611144906134f7565b80601f0160208091040260200160405190810160405280929190818152602001828054611170906134f7565b80156111bd5780601f10611192576101008083540402835291602001916111bd565b820191906000526020600020905b8154815290600101906020018083116111a057829003601f168201915b5050505050905090565b6111d96111d2611a81565b8383611cb5565b5050565b600760009054906101000a900473ffffffffffffffffffffffffffffffffffffffff1673ffffffffffffffffffffffffffffffffffffffff163373ffffffffffffffffffffffffffffffffffffffff161461126d576040517f08c379a0000000000000000000000000000000000000000000000000000000008152600401611264906136ab565b60405180910390fd5b8060088190555050565b6112828484846108c8565b61128e84848484611e24565b50505050565b60008083116112d8576040517f08c379a00000000000000000000000000000000000000000000000000000000081526004016112cf90613717565b60405180910390fd5b6000821161131b576040517f08c379a0000000000000000000000000000000000000000000000000000000008152600401611312906137a9565b60405180910390fd5b6009600081548092919061132e906135c2565b9190505550600060095490506113443382611fdb565b61134e8186611ff9565b611359818585612055565b809150509392505050565b6000600b6000848152602001908152602001600020905060008160050154826003015461139191906137f8565b9050600083826113a19190613829565b905060008360020160009054906101000a900473ffffffffffffffffffffffffffffffffffffffff1690508360060154851115611413576040517f08c379a000000000000000000000000000000000000000000000000000000000815260040161140a906138b7565b60405180910390fd5b813414611455576040517f08c379a000000000000000000000000000000000000000000000000000000000815260040161144c90613949565b60405180910390fd5b848460060160008282546114699190613969565b925050819055506000805b600c60003373ffffffffffffffffffffffffffffffffffffffff1673ffffffffffffffffffffffffffffffffffffffff168152602001908152602001600020805490508110156115b65787600c60003373ffffffffffffffffffffffffffffffffffffffff1673ffffffffffffffffffffffffffffffffffffffff16815260200190815260200160002082815481106115105761150f61360a565b5b906000526020600020906002020160000154036115a95786600c60003373ffffffffffffffffffffffffffffffffffffffff1673ffffffffffffffffffffffffffffffffffffffff16815260200190815260200160002082815481106115795761157861360a565b5b90600052602060002090600202016001016000828254611599919061358e565b92505081905550600191506115b6565b8080600101915050611474565b508061165057600c60003373ffffffffffffffffffffffffffffffffffffffff1673ffffffffffffffffffffffffffffffffffffffff1681526020019081526020016000206040518060400160405280898152602001888152509080600181540180825580915050600190039060005260206000209060020201600090919091909150600082015181600001556020820151816001015550505b60006064600854856116629190613829565b61166c91906137f8565b9050600760009054906101000a900473ffffffffffffffffffffffffffffffffffffffff1673ffffffffffffffffffffffffffffffffffffffff166108fc829081150290604051600060405180830381858888f193505050501580156116d6573d6000803e3d6000fd5b508273ffffffffffffffffffffffffffffffffffffffff166108fc82346116fd9190613969565b9081150290604051600060405180830381858888f19350505050158015611728573d6000803e3d6000fd5b505050505050505050565b606061173e826119bc565b50600060066000848152602001908152602001600020805461175f906134f7565b80601f016020809104026020016040519081016040528092919081815260200182805461178b906134f7565b80156117d85780601f106117ad576101008083540402835291602001916117d8565b820191906000526020600020905b8154815290600101906020018083116117bb57829003601f168201915b5050505050905060006117e961223b565b905060008151036117fe578192505050611841565b60008251111561183357808260405160200161181b9291906139d9565b60405160208183030381529060405292505050611841565b61183c84612252565b925050505b919050565b6000600560008473ffffffffffffffffffffffffffffffffffffffff1673ffffffffffffffffffffffffffffffffffffffff16815260200190815260200160002060008373ffffffffffffffffffffffffffffffffffffffff1673ffffffffffffffffffffffffffffffffffffffff16815260200190815260200160002060009054906101000a900460ff16905092915050565b60007f80ac58cd000000000000000000000000000000000000000000000000000000007bffffffffffffffffffffffffffffffffffffffffffffffffffffffff1916827bffffffffffffffffffffffffffffffffffffffffffffffffffffffff191614806119a557507f5b5e139f000000000000000000000000000000000000000000000000000000007bffffffffffffffffffffffffffffffffffffffffffffffffffffffff1916827bffffffffffffffffffffffffffffffffffffffffffffffffffffffff1916145b806119b557506119b4826122bb565b5b9050919050565b6000806119c883612325565b9050600073ffffffffffffffffffffffffffffffffffffffff168173ffffffffffffffffffffffffffffffffffffffff1603611a3b57826040517f7e273289000000000000000000000000000000000000000000000000000000008152600401611a329190612c44565b60405180910390fd5b80915050919050565b60006004600083815260200190815260200160002060009054906101000a900473ffffffffffffffffffffffffffffffffffffffff169050919050565b600033905090565b611a968383836001612362565b505050565b600080611aa784612325565b9050600073ffffffffffffffffffffffffffffffffffffffff168373ffffffffffffffffffffffffffffffffffffffff1614611ae957611ae8818486612527565b5b600073ffffffffffffffffffffffffffffffffffffffff168173ffffffffffffffffffffffffffffffffffffffff1614611b7a57611b2b600085600080612362565b6001600360008373ffffffffffffffffffffffffffffffffffffffff1673ffffffffffffffffffffffffffffffffffffffff168152602001908152602001600020600082825403925050819055505b600073ffffffffffffffffffffffffffffffffffffffff168573ffffffffffffffffffffffffffffffffffffffff1614611bfd576001600360008773ffffffffffffffffffffffffffffffffffffffff1673ffffffffffffffffffffffffffffffffffffffff168152602001908152602001600020600082825401925050819055505b846002600086815260200190815260200160002060006101000a81548173ffffffffffffffffffffffffffffffffffffffff021916908373ffffffffffffffffffffffffffffffffffffffff160217905550838573ffffffffffffffffffffffffffffffffffffffff168273ffffffffffffffffffffffffffffffffffffffff167fddf252ad1be2c89b69c2b068fc378daa952ba7f163c4a11628f55a4df523b3ef60405160405180910390a4809150509392505050565b600073ffffffffffffffffffffffffffffffffffffffff168273ffffffffffffffffffffffffffffffffffffffff1603611d2657816040517f5b08ba18000000000000000000000000000000000000000000000000000000008152600401611d1d9190612dab565b60405180910390fd5b80600560008573ffffffffffffffffffffffffffffffffffffffff1673ffffffffffffffffffffffffffffffffffffffff16815260200190815260200160002060008473ffffffffffffffffffffffffffffffffffffffff1673ffffffffffffffffffffffffffffffffffffffff16815260200190815260200160002060006101000a81548160ff0219169083151502179055508173ffffffffffffffffffffffffffffffffffffffff168373ffffffffffffffffffffffffffffffffffffffff167f17307eab39ab6107e8899845ad3d59bd9653f200f220920489ca2b5937696c3183604051611e179190612c1a565b60405180910390a3505050565b60008373ffffffffffffffffffffffffffffffffffffffff163b1115611fd5578273ffffffffffffffffffffffffffffffffffffffff1663150b7a02611e68611a81565b8685856040518563ffffffff1660e01b8152600401611e8a9493929190613a52565b6020604051808303816000875af1925050508015611ec657506040513d601f19601f82011682018060405250810190611ec39190613ab3565b60015b611f4a573d8060008114611ef6576040519150601f19603f3d011682016040523d82523d6000602084013e611efb565b606091505b506000815103611f4257836040517f64a0ae92000000000000000000000000000000000000000000000000000000008152600401611f399190612dab565b60405180910390fd5b805181602001fd5b63150b7a0260e01b7bffffffffffffffffffffffffffffffffffffffffffffffffffffffff1916817bffffffffffffffffffffffffffffffffffffffffffffffffffffffff191614611fd357836040517f64a0ae92000000000000000000000000000000000000000000000000000000008152600401611fca9190612dab565b60405180910390fd5b505b50505050565b611ff58282604051806020016040528060008152506125eb565b5050565b806006600084815260200190815260200160002090816120199190613c8c565b507ff8e1a15aba9398e019f0b49df1a4fde98ee17ae345cb5f6b5e2c27f5033e8ce7826040516120499190612c44565b60405180910390a15050565b6040518060e001604052808481526020013373ffffffffffffffffffffffffffffffffffffffff1681526020013373ffffffffffffffffffffffffffffffffffffffff16815260200183815260200160011515815260200182815260200182815250600b60008581526020019081526020016000206000820151816000015560208201518160010160006101000a81548173ffffffffffffffffffffffffffffffffffffffff021916908373ffffffffffffffffffffffffffffffffffffffff16021790555060408201518160020160006101000a81548173ffffffffffffffffffffffffffffffffffffffff021916908373ffffffffffffffffffffffffffffffffffffffff1602179055506060820151816003015560808201518160040160006101000a81548160ff02191690831515021790555060a0820151816005015560c08201518160060155905050600c60003373ffffffffffffffffffffffffffffffffffffffff1673ffffffffffffffffffffffffffffffffffffffff168152602001908152602001600020604051806040016040528085815260200183815250908060018154018082558091505060019003906000526020600020906002020160009091909190915060008201518160000155602082015181600101555050505050565b606060405180602001604052806000815250905090565b606061225d826119bc565b50600061226861223b565b9050600081511161228857604051806020016040528060008152506122b3565b8061229284612607565b6040516020016122a39291906139d9565b6040516020818303038152906040525b915050919050565b60007f01ffc9a7000000000000000000000000000000000000000000000000000000007bffffffffffffffffffffffffffffffffffffffffffffffffffffffff1916827bffffffffffffffffffffffffffffffffffffffffffffffffffffffff1916149050919050565b60006002600083815260200190815260200160002060009054906101000a900473ffffffffffffffffffffffffffffffffffffffff169050919050565b808061239b5750600073ffffffffffffffffffffffffffffffffffffffff168273ffffffffffffffffffffffffffffffffffffffff1614155b156124cf5760006123ab846119bc565b9050600073ffffffffffffffffffffffffffffffffffffffff168373ffffffffffffffffffffffffffffffffffffffff161415801561241657508273ffffffffffffffffffffffffffffffffffffffff168173ffffffffffffffffffffffffffffffffffffffff1614155b801561242957506124278184611846565b155b1561246b57826040517fa9fbf51f0000000000000000000000000000000000000000000000000000000081526004016124629190612dab565b60405180910390fd5b81156124cd57838573ffffffffffffffffffffffffffffffffffffffff168273ffffffffffffffffffffffffffffffffffffffff167f8c5be1e5ebec7d5bd14f71427d1e84f3dd0314c0f7b2291e5b200ac8c7c3b92560405160405180910390a45b505b836004600085815260200190815260200160002060006101000a81548173ffffffffffffffffffffffffffffffffffffffff021916908373ffffffffffffffffffffffffffffffffffffffff16021790555050505050565b6125328383836126d5565b6125e657600073ffffffffffffffffffffffffffffffffffffffff168373ffffffffffffffffffffffffffffffffffffffff16036125a757806040517f7e27328900000000000000000000000000000000000000000000000000000000815260040161259e9190612c44565b60405180910390fd5b81816040517f177e802f0000000000000000000000000000000000000000000000000000000081526004016125dd929190613d5e565b60405180910390fd5b505050565b6125f58383612796565b6126026000848484611e24565b505050565b6060600060016126168461288f565b01905060008167ffffffffffffffff8111156126355761263461318a565b5b6040519080825280601f01601f1916602001820160405280156126675781602001600182028036833780820191505090505b509050600082602001820190505b6001156126ca578080600190039150507f3031323334353637383961626364656600000000000000000000000000000000600a86061a8153600a85816126be576126bd6137c9565b5b04945060008503612675575b819350505050919050565b60008073ffffffffffffffffffffffffffffffffffffffff168373ffffffffffffffffffffffffffffffffffffffff161415801561278d57508273ffffffffffffffffffffffffffffffffffffffff168473ffffffffffffffffffffffffffffffffffffffff16148061274e575061274d8484611846565b5b8061278c57508273ffffffffffffffffffffffffffffffffffffffff1661277483611a44565b73ffffffffffffffffffffffffffffffffffffffff16145b5b90509392505050565b600073ffffffffffffffffffffffffffffffffffffffff168273ffffffffffffffffffffffffffffffffffffffff16036128085760006040517f64a0ae920000000000000000000000000000000000000000000000000000000081526004016127ff9190612dab565b60405180910390fd5b600061281683836000611a9b565b9050600073ffffffffffffffffffffffffffffffffffffffff168173ffffffffffffffffffffffffffffffffffffffff161461288a5760006040517f73c6ac6e0000000000000000000000000000000000000000000000000000000081526004016128819190612dab565b60405180910390fd5b505050565b600080600090507a184f03e93ff9f4daa797ed6e38ed64bf6a1f01000000000000000083106128ed577a184f03e93ff9f4daa797ed6e38ed64bf6a1f01000000000000000083816128e3576128e26137c9565b5b0492506040810190505b6d04ee2d6d415b85acef8100000000831061292a576d04ee2d6d415b85acef810000000083816129205761291f6137c9565b5b0492506020810190505b662386f26fc10000831061295957662386f26fc10000838161294f5761294e6137c9565b5b0492506010810190505b6305f5e1008310612982576305f5e1008381612978576129776137c9565b5b0492506008810190505b61271083106129a757612710838161299d5761299c6137c9565b5b0492506004810190505b606483106129ca57606483816129c0576129bf6137c9565b5b0492506002810190505b600a83106129d9576001810190505b80915050919050565b6040518060e0016040528060008152602001600073ffffffffffffffffffffffffffffffffffffffff168152602001600073ffffffffffffffffffffffffffffffffffffffff1681526020016000815260200160001515815260200160008152602001600081525090565b600081519050919050565b600082825260208201905092915050565b6000819050602082019050919050565b6000819050919050565b612a8c81612a79565b82525050565b604082016000820151612aa86000850182612a83565b506020820151612abb6020850182612a83565b50505050565b6000612acd8383612a92565b60408301905092915050565b6000602082019050919050565b6000612af182612a4d565b612afb8185612a58565b9350612b0683612a69565b8060005b83811015612b37578151612b1e8882612ac1565b9750612b2983612ad9565b925050600181019050612b0a565b5085935050505092915050565b60006020820190508181036000830152612b5e8184612ae6565b905092915050565b6000604051905090565b600080fd5b600080fd5b60007fffffffff0000000000000000000000000000000000000000000000000000000082169050919050565b612baf81612b7a565b8114612bba57600080fd5b50565b600081359050612bcc81612ba6565b92915050565b600060208284031215612be857612be7612b70565b5b6000612bf684828501612bbd565b91505092915050565b60008115159050919050565b612c1481612bff565b82525050565b6000602082019050612c2f6000830184612c0b565b92915050565b612c3e81612a79565b82525050565b6000602082019050612c596000830184612c35565b92915050565b600081519050919050565b600082825260208201905092915050565b60005b83811015612c99578082015181840152602081019050612c7e565b60008484015250505050565b6000601f19601f8301169050919050565b6000612cc182612c5f565b612ccb8185612c6a565b9350612cdb818560208601612c7b565b612ce481612ca5565b840191505092915050565b60006020820190508181036000830152612d098184612cb6565b905092915050565b612d1a81612a79565b8114612d2557600080fd5b50565b600081359050612d3781612d11565b92915050565b600060208284031215612d5357612d52612b70565b5b6000612d6184828501612d28565b91505092915050565b600073ffffffffffffffffffffffffffffffffffffffff82169050919050565b6000612d9582612d6a565b9050919050565b612da581612d8a565b82525050565b6000602082019050612dc06000830184612d9c565b92915050565b612dcf81612d8a565b8114612dda57600080fd5b50565b600081359050612dec81612dc6565b92915050565b60008060408385031215612e0957612e08612b70565b5b6000612e1785828601612ddd565b9250506020612e2885828601612d28565b9150509250929050565b6000612e3d82612d6a565b9050919050565b612e4d81612e32565b82525050565b612e5c81612bff565b82525050565b60e082016000820151612e786000850182612a83565b506020820151612e8b6020850182612e44565b506040820151612e9e6040850182612e44565b506060820151612eb16060850182612a83565b506080820151612ec46080850182612e53565b5060a0820151612ed760a0850182612a83565b5060c0820151612eea60c0850182612a83565b50505050565b600060e082019050612f056000830184612e62565b92915050565b600080600060608486031215612f2457612f23612b70565b5b6000612f3286828701612ddd565b9350506020612f4386828701612ddd565b9250506040612f5486828701612d28565b9150509250925092565b600081519050919050565b600082825260208201905092915050565b6000819050602082019050919050565b60e082016000820151612fa06000850182612a83565b506020820151612fb36020850182612e44565b506040820151612fc66040850182612e44565b506060820151612fd96060850182612a83565b506080820151612fec6080850182612e53565b5060a0820151612fff60a0850182612a83565b5060c082015161301260c0850182612a83565b50505050565b60006130248383612f8a565b60e08301905092915050565b6000602082019050919050565b600061304882612f5e565b6130528185612f69565b935061305d83612f7a565b8060005b8381101561308e5781516130758882613018565b975061308083613030565b925050600181019050613061565b5085935050505092915050565b600060208201905081810360008301526130b5818461303d565b905092915050565b6130c681612e32565b82525050565b60006020820190506130e160008301846130bd565b92915050565b6000602082840312156130fd576130fc612b70565b5b600061310b84828501612ddd565b91505092915050565b61311d81612bff565b811461312857600080fd5b50565b60008135905061313a81613114565b92915050565b6000806040838503121561315757613156612b70565b5b600061316585828601612ddd565b92505060206131768582860161312b565b9150509250929050565b600080fd5b600080fd5b7f4e487b7100000000000000000000000000000000000000000000000000000000600052604160045260246000fd5b6131c282612ca5565b810181811067ffffffffffffffff821117156131e1576131e061318a565b5b80604052505050565b60006131f4612b66565b905061320082826131b9565b919050565b600067ffffffffffffffff8211156132205761321f61318a565b5b61322982612ca5565b9050602081019050919050565b82818337600083830152505050565b600061325861325384613205565b6131ea565b90508281526020810184848401111561327457613273613185565b5b61327f848285613236565b509392505050565b600082601f83011261329c5761329b613180565b5b81356132ac848260208601613245565b91505092915050565b600080600080608085870312156132cf576132ce612b70565b5b60006132dd87828801612ddd565b94505060206132ee87828801612ddd565b93505060406132ff87828801612d28565b925050606085013567ffffffffffffffff8111156133205761331f612b75565b5b61332c87828801613287565b91505092959194509250565b600067ffffffffffffffff8211156133535761335261318a565b5b61335c82612ca5565b9050602081019050919050565b600061337c61337784613338565b6131ea565b90508281526020810184848401111561339857613397613185565b5b6133a3848285613236565b509392505050565b600082601f8301126133c0576133bf613180565b5b81356133d0848260208601613369565b91505092915050565b6000806000606084860312156133f2576133f1612b70565b5b600084013567ffffffffffffffff8111156134105761340f612b75565b5b61341c868287016133ab565b935050602061342d86828701612d28565b925050604061343e86828701612d28565b9150509250925092565b6000806040838503121561345f5761345e612b70565b5b600061346d85828601612d28565b925050602061347e85828601612d28565b9150509250929050565b6000806040838503121561349f5761349e612b70565b5b60006134ad85828601612ddd565b92505060206134be85828601612ddd565b9150509250929050565b7f4e487b7100000000000000000000000000000000000000000000000000000000600052602260045260246000fd5b6000600282049050600182168061350f57607f821691505b602082108103613522576135216134c8565b5b50919050565b600060608201905061353d6000830186612d9c565b61354a6020830185612c35565b6135576040830184612d9c565b949350505050565b7f4e487b7100000000000000000000000000000000000000000000000000000000600052601160045260246000fd5b600061359982612a79565b91506135a483612a79565b92508282019050808211156135bc576135bb61355f565b5b92915050565b60006135cd82612a79565b91507fffffffffffffffffffffffffffffffffffffffffffffffffffffffffffffffff82036135ff576135fe61355f565b5b600182019050919050565b7f4e487b7100000000000000000000000000000000000000000000000000000000600052603260045260246000fd5b7f4f6e6c79206f776e65722063616e2063616c6c20746869732066756e6374696f60008201527f6e00000000000000000000000000000000000000000000000000000000000000602082015250565b6000613695602183612c6a565b91506136a082613639565b604082019050919050565b600060208201905081810360008301526136c481613688565b9050919050565b7f5072696365206d7573742062652067726561746572207468616e207a65726f00600082015250565b6000613701601f83612c6a565b915061370c826136cb565b602082019050919050565b60006020820190508181036000830152613730816136f4565b9050919050565b7f546f74616c206672616374696f6e73206d75737420626520677265617465722060008201527f7468616e207a65726f0000000000000000000000000000000000000000000000602082015250565b6000613793602983612c6a565b915061379e82613737565b604082019050919050565b600060208201905081810360008301526137c281613786565b9050919050565b7f4e487b7100000000000000000000000000000000000000000000000000000000600052601260045260246000fd5b600061380382612a79565b915061380e83612a79565b92508261381e5761381d6137c9565b5b828204905092915050565b600061383482612a79565b915061383f83612a79565b925082820261384d81612a79565b915082820484148315176138645761386361355f565b5b5092915050565b7f4e6f7420656e6f756768206672616374696f6e7320617661696c61626c650000600082015250565b60006138a1601e83612c6a565b91506138ac8261386b565b602082019050919050565b600060208201905081810360008301526138d081613894565b9050919050565b7f506c65617365207375626d69742074686520636f72726563742070726963652060008201527f746f20636f6d706c657465207468652070757263686173650000000000000000602082015250565b6000613933603883612c6a565b915061393e826138d7565b604082019050919050565b6000602082019050818103600083015261396281613926565b9050919050565b600061397482612a79565b915061397f83612a79565b92508282039050818111156139975761399661355f565b5b92915050565b600081905092915050565b60006139b382612c5f565b6139bd818561399d565b93506139cd818560208601612c7b565b80840191505092915050565b60006139e582856139a8565b91506139f182846139a8565b91508190509392505050565b600081519050919050565b600082825260208201905092915050565b6000613a24826139fd565b613a2e8185613a08565b9350613a3e818560208601612c7b565b613a4781612ca5565b840191505092915050565b6000608082019050613a676000830187612d9c565b613a746020830186612d9c565b613a816040830185612c35565b8181036060830152613a938184613a19565b905095945050505050565b600081519050613aad81612ba6565b92915050565b600060208284031215613ac957613ac8612b70565b5b6000613ad784828501613a9e565b91505092915050565b60008190508160005260206000209050919050565b60006020601f8301049050919050565b600082821b905092915050565b600060088302613b427fffffffffffffffffffffffffffffffffffffffffffffffffffffffffffffffff82613b05565b613b4c8683613b05565b95508019841693508086168417925050509392505050565b6000819050919050565b6000613b89613b84613b7f84612a79565b613b64565b612a79565b9050919050565b6000819050919050565b613ba383613b6e565b613bb7613baf82613b90565b848454613b12565b825550505050565b600090565b613bcc613bbf565b613bd7818484613b9a565b505050565b5b81811015613bfb57613bf0600082613bc4565b600181019050613bdd565b5050565b601f821115613c4057613c1181613ae0565b613c1a84613af5565b81016020851015613c29578190505b613c3d613c3585613af5565b830182613bdc565b50505b505050565b600082821c905092915050565b6000613c6360001984600802613c45565b1980831691505092915050565b6000613c7c8383613c52565b9150826002028217905092915050565b613c9582612c5f565b67ffffffffffffffff811115613cae57613cad61318a565b5b613cb882546134f7565b613cc3828285613bff565b600060209050601f831160018114613cf65760008415613ce4578287015190505b613cee8582613c70565b865550613d56565b601f198416613d0486613ae0565b60005b82811015613d2c57848901518255600182019150602085019450602081019050613d07565b86831015613d495784890151613d45601f891682613c52565b8355505b6001600288020188555050505b505050505050565b6000604082019050613d736000830185612d9c565b613d806020830184612c35565b939250505056fea264697066735822122082199c34c54a43c7fbcee3e0ebea80251cdd014a1bfca583234ce66c9f6d3d0664736f6c63430008180033",
  "linkReferences": {},
  "deployedLinkReferences": {}
}